:100000000C94EB010C9413020C9413020C94130245
:100010000C9413020C9413020C9413020C9413020C
:100020000C9413020C9413020C9413020C941302FC
:100030000C9413020C9413020C9413020C941302EC
:100040000C94E51B0C9413020C94E91E0C942C1FC9
:100050000C9413020C9413020C9413020C941302CC
:100060000C9413020C941302960B9E0BB00BBD0B59
:10007000C00BD50BD80BDB0BE40BEB0B000C030C0C
:10008000060C110C140C290C300C380C4F0C600CA5
:100090000C0D140D260D400D430D460D4E0D630D38
:1000A0006A0D7C0D8D0D0A1E00485454505F434F5D
:1000B00044450A1F00687474703A2F2F003F736F15
:1000C000757263655F69643D61726475696E6F53D3
:1000D000444B31002E74656D626F6F6C6976652ECE
:1000E000636F6D00436F6E74656E742D5479706527
:1000F0003A20746578742F706C61696E00782D7485
:10010000656D626F6F2D61757468656E746963618A
:1001100074696F6E3A20002F617263747572757323
:100120002D7765622F6170692D312E302F6172003D
:10013000782D74656D626F6F2D74696D653A20005E
:10014000436F6E74656E742D4C656E6774683A20EB
:10015000002F6D617374657200782D74656D626F28
:100160006F2D646F6D61696E3A202F004163636586
:1001700070743A206170706C69636174696F6E2F7E
:10018000786D6C00486F73743A20002048545450C6
:100190002F312E3000504F535420000D0A003031C3
:1001A000323334353637383961626364656600222C
:1001B0007661726961626C65223A002270617468CE
:1001C000223A00226E616D65223A00226F757470CA
:1001D000757473223A5B0022707265736574223AFB
:1001E0000022696E70757473223A7B0078A46AD716
:1001F00056B7C7E8DB702024EECEBDC1AF0F7CF54B
:100200002AC68747134630A8019546FDD8988069CD
:10021000AFF7448BB15BFFFFBED75C892211906BB7
:10022000937198FD8E4379A62108B44962251EF684
:1002300040B340C0515A5E26AAC7B6E95D102FD61A
:100240005314440281E6A1D8C8FBD3E7E6CDE121EF
:10025000D60737C3870DD5F4ED145A4505E9E3A950
:10026000F8A3EFFCD9026F678A4C2A8D4239FAFF56
:1002700081F6718722619D6D0C38E5FD44EABEA4CC
:10028000A9CFDE4B604BBBF670BCBFBEC67E9B28C1
:10029000FA27A1EA8530EFD4051D880439D0D4D9D6
:1002A000E599DBE6F87CA21F6556ACC4442229F42C
:1002B00097FF2A43A72394AB39A093FCC3595B65EE
:1002C00092CC0C8F7DF4EFFFD15D84854F7EA86FBB
:1002D000E0E62CFE144301A3A111084E827E53F7E1
:1002E00035F23ABDBBD2D72A91D386EB070C111653
:1002F000070C1116070C1116070C111605090E1420
:1003000005090E1405090E1405090E14040B101727
:10031000040B1017040B1017040B1017060A0F1507
:10032000060A0F15060A0F15060A0F15000102032B
:100330000405060708090A0B0C0D0E0F01060B0039
:10034000050A0F04090E03080D02070C05080B0E21
:100350000104070A0D000306090C0F0200070E0531
:100360000C030A01080F060D040B02090000000728
:10037000000201000003040600000000000000006D
:10038000010204081020408001020408102001022C
:1003900004081020040404040404040402020202F9
:1003A00002020303030303030000000023002600EE
:1003B000290000000000250028002B00000000009C
:1003C000240027002A000703CD05F9087E135715DE
:1003D000AA16F11FAE2111241FBECFEFD8E0DEBF59
:1003E000CDBF12E0A0E0B1E0E2E8FBE402C005907E
:1003F0000D92A634B107D9F723E0A6E4B2E001C01C
:100400001D92AD33B207E1F711E0CBEED1E004C0AD
:100410002197FE010E940B25C33ED107C9F70E9418
:10042000CB1C0C94BF250C940000CF93DF9340E8C5
:1004300055E260E070E089E892E00E94671F60EAA0
:100440007FE080E090E00E94601C89E892E00E94DA
:10045000EF1F8823D1F36AE171E089E892E00E94FE
:100460009E208BE692E00E9478138F3F39F464E27D
:1004700071E089E892E00E94CD20FFCF69E271E04F
:1004800089E892E00E94CD206CE271E089E892E078
:100490000E949E2022E331E041E061E471E08BE6BE
:1004A00092E00E944D13EC01039719F469E271E0A8
:1004B00002C064E271E089E892E00E94CD2068E821
:1004C00073E180E090E00E94601C2397E9F666E407
:1004D00071E089E892E0DF91CF910C94CD20CF9329
:1004E000DF93CDB7DEB7AD970FB6F894DEBF0FBE82
:1004F000CDBF609102017091030180910001909144
:100500000101861797070CF46DC0CB0101969093FB
:100510000301809302014AE0CE0187960E94542293
:1005200067E571E0CE0101960E942722BE01695D58
:100530007F4FCE0101960E94AF22BC0189E892E074
:100540000E94BB20CE0101960E94B921CE01879660
:100550000E94B92166E472E0CE0101960E94D503A3
:1005600063E771E0CE0101960E9408046AE771E03A
:10057000CE0101960E940C0465E871E0CE0101965F
:100580000E94100466EA71E0CE0101960E941804F0
:100590006CEA71E0CE0101960E941404CE0101962E
:1005A0000E949805CE0101960E943103892B51F0DB
:1005B000CE0101960E946703682F89E892E00E94AD
:1005C000A020F0CFCE0101960E94C10583EF91E0FB
:1005D0009A838983CE010F960E94F205CE010D9673
:1005E0000E94DC056BEC71E089E892E00E94CD206E
:1005F00060E375E780E090E00E94601CAD960FB666
:10060000F894DEBF0FBECDBFDF91CF9108950F9359
:1006100000E020E040E060E085E592E00E94972164
:1006200086E492E00F910C947C14DC015A968D9133
:100630009C915B97DC01ED91FC910190F081E02DA4
:100640000994FC0113A212A283E090E095A384A375
:10065000828D938DDC01ED91FC910284F385E02D78
:100660000994DC0192962D913C9193975A968D9125
:100670009C915B97DC01ED91FC910480F581E02D6C
:10068000232B19F00995019608950994DC0192969F
:10069000ED91FC919397309779F094968D919C9180
:1006A0009597029721F0E4918E2F90E00895808134
:1006B000082E000C990B08955A968D919C915B978A
:1006C000DC01ED91FC910084F185E02D0994CF933C
:1006D000DF93DC0194968D919C91959781309105E3
:1006E000C1F082309105A9F1892B09F04EC08AEA48
:1006F00090E093969C938E939297E9EAF0E0E491D0
:100700008E2F90E021E030E095963C932E939497C5
:1007100049C09296ED91FC919397AF014F5F5F4F67
:1007200093965C934E9392972491822F90E0FA01D6
:100730004491411137C022E030E095963C932E93CE
:1007400094979D01245E3F4F93963C932E939297EE
:1007500029C09296CD91DC919397CE010196939604
:100760009C938E939297E8818E2FEE0F990B29819F
:10077000211118C023E030E095963C932E93949776
:1007800093961C921E9292970DC05A968D919C91B1
:100790005B97DC01ED91FC910680F781E02DDF9104
:1007A000CF910994DF91CF9108950F931F93CF9329
:1007B000DF93EC018B011B821A8288EE93E0A0E0AC
:1007C000B0E08C839D83AE83BF8383EF91E09983F8
:1007D0008883CE010C960E94D805CE010E960E9409
:1007E000EE05198A188A1B8F0A8F1B8A1A8A1F8A9C
:1007F0001E8A1D8A1C8A198E188E1BA21AA283E0DB
:1008000090E09DA38CA3DF91CF911F910F9108954C
:10081000FC01738B628B0895FC01778B668B0895C6
:10082000FC01758B648B0895FC01718F608F0895B6
:10083000FC01718B608B08952F923F924F925F92D3
:100840006F927F928F929F92AF92BF92CF92DF92E0
:10085000EF92FF920F931F93CF93DF93CDB7DEB745
:10086000EC970FB6F894DEBF0FBECDBFFC0113A20C
:1008700012A2A289B389109709F436C18C918823FA
:1008800009F432C1A08DB18D109709F430C18C915B
:10089000882309F42CC1A689B789109709F42AC1C5
:1008A0008C91882309F426C1A489B589109709F48D
:1008B00024C18C91882309F420C139019A01DB01FC
:1008C0004F0183E492E09EA78DA712968D919D9192
:1008D0000D90BC91A02D8FA798ABA9ABBAAB628D40
:1008E000738DAE01435D5F4FCE0101960E940406F9
:1008F000212C312C8401005F1F4F1CAB0BAB9401EA
:10090000225F3F4F3EAB2DABC4010C9698AF8FAB2F
:10091000830120E030E009AF1AAF2BAF3CAF0E945B
:1009200049062B013C01D40158960D911C91599711
:1009300054962D913C91559756964D915C915797B1
:1009400052966D917C915397ABA8BCA8CDA8DEA818
:10095000EFA8F8ACCE0101960E947C07892B09F024
:100960005DC0F401828D938DDC01ED91FC910480DA
:10097000F581E02D0995892B81F50E944906AB018F
:10098000BC014419550966097709D4015A968D911D
:100990009C915B9709AD1AAD2BAD3CADDC01ED919F
:1009A000FC91401751076207730738F00288F389FA
:1009B000E02D099581EE90E0A2C00488F589E02D34
:1009C0000995811103C08FED90E099C06AE070E055
:1009D00080E090E00E94601CC4CF49E051E068EDE7
:1009E00071E0F401828D938D0E94B71D882359F325
:1009F000D4015A968D919C915B97DC01ED91FC910D
:100A00000680F781E02D0995F401828D938D0E9477
:100A10004C1E3B016835F2E07F0718F0612C712C09
:100A20003CC061397140C9F52328B9F544E051E073
:100A300060EE71E0D4015A968D919C915B970E9473
:100A4000B71D882331F1F401828D938D0E944C1ED5
:100A50000E942A06D4015A968D919C915B97DC01E5
:100A6000ED91FC910480F581E02D0995F401A28DB2
:100A7000B38DED91FC911197892B31F00680F781B0
:100A8000E02DCD010995E6CF0288F389E02DCD0157
:100A9000099522242394312C42CF2401BCE14B0E32
:100AA000511CB201C3010E94050A66EA70E0C2014E
:100AB0000E945225F40115A214A289EA90E093A3A2
:100AC00082A3B301685C71096436710508F07BCFBD
:100AD00064E071E0828D938D0E94CF1D882309F41C
:100AE00072CF80E090E00BC089EC90E008C08BEC06
:100AF00090E005C08DEC90E002C08FEC90E0EC96A9
:100B00000FB6F894DEBF0FBECDBFDF91CF911F911E
:100B10000F91FF90EF90DF90CF90BF90AF909F909C
:100B20008F907F906F905F904F903F902F9008959F
:100B3000CF93DF9300D000D000D0CDB7DEB723E451
:100B400032E03A83298340915D0250915E026091C8
:100B50005F02709160024B835C836D837E8325E826
:100B600033E040E550E0BE016F5F7F4F0E941C0400
:100B700026960FB6F894DEBF0FBECDBFDF91CF91A2
:100B80000895DC015A968D919C915B97DC01ED9163
:100B9000FC910288F389E02D09940F9300E020E096
:100BA00040E060E08BE592E00E9497210F9108956C
:100BB000FC01118210820895CF93DF93FC018081A4
:100BC0009181009741F0FC01D081C1810E944921AF
:100BD0008D2F9C2FF6CFDF91CF910895FC011182CC
:100BE00010820895CF93DF93FC018081918100975B
:100BF00041F0FC01D081C1810E9449218D2F9C2FA1
:100C0000F6CFDF91CF910895CF92DF92EF92FF92CE
:100C10000F931F93CF93DF93EC016B017A0189014E
:100C20000E948D21D986C886F70182819381A48193
:100C3000B5818A839B83AC83BD831F830E831BA6F0
:100C40001AA6DF91CF911F910F91FF90EF90DF9047
:100C5000CF900895CF92DF92EF92FF926B017C01CB
:100C60000E942F1C28EE33E040E050E00E94E9246F
:100C7000C21AD30AE40AF50AC0926102D092620253
:100C8000E0926302F0926402FF90EF90DF90CF90C9
:100C90000895CF92DF92EF92FF92C0906102D090C0
:100CA0006202E0906302F09064020E942F1C28EE22
:100CB00033E040E050E00E94E924CA01B9016C0D24
:100CC0007D1D8E1D9F1DFF90EF90DF90CF900895AA
:100CD0004F925F926F927F928F929F92AF92BF924C
:100CE000CF92DF92EF92FF920F931F93CF93DF93F8
:100CF000CDB7DEB7C25AD1090FB6F894DEBF0FBE2A
:100D0000CDBF5B017A013901CDB6DEB6CE010196C9
:100D10000E940B0AF70101900020E9F73197EE19C4
:100D2000FF09D3010D900020E9F71197A619B70923
:100D30002D014E0E5F1EC20101962DB73EB7281B36
:100D4000390B0FB6F8943EBF0FBE2DBF8DB79EB7BF
:100D500001964C01B3010E947825B701C4010E949D
:100D60006D25920140E050E0B401CE0101960E9451
:100D7000AA0AC5010E940409812C912CE12CF12CB6
:100D8000C5010E944009882311F1C5010E9449094B
:100D90009FEFE91AF90AA4014F5F5F4FE3E6F0E025
:100DA000EC0FFD1FE80DF91D80834034510569F4F7
:100DB00020E430E040E050E0BE016D597F4FCE01AD
:100DC00001960E940D0A40E050E04A01D9CF9401FB
:100DD000990C440B550BBE016D597F4FCE01019606
:100DE0000E940D0AB801CE0101960E943A0BC7017C
:100DF0000FB6F894DEBE0FBECDBECE55DF4F0FB698
:100E0000F894DEBF0FBECDBFDF91CF911F910F9140
:100E1000FF90EF90DF90CF90BF90AF909F908F901A
:100E20007F906F905F904F900895CF93DF93EC0188
:100E300088859985DC01ED91FC914AA55BA5BE01F1
:100E4000665F7F4F0280F381E02D09951BA61AA6ED
:100E5000DF91CF910895FC0122A533A5A9014F5F31
:100E60005F4F53A742A7E20FF31F6287403251053D
:100E700010F00C94150708950F931F93CF93DF93F1
:100E80008C01EB016991662321F0C8010E942B07B8
:100E9000F9CFDF91CF911F910F9108950F931F9379
:100EA000CF93DF938C01FB016491EF0121966623C0
:100EB00031F0C8010E942B07FE016491F7CFDF914A
:100EC000CF911F910F910895CF93DF93EC010E9472
:100ED0003C076BE971E0CE01DF91CF910C944E0796
:100EE000CF93DF93EC010E944E076BE971E0CE01D6
:100EF000DF91CF910C944E072F923F924F925F92C9
:100F00006F927F928F929F92AF92BF92CF92DF9219
:100F1000EF92FF920F931F93CF93DF93CDB7DEB77E
:100F2000C555D1090FB6F894DEBF0FBECDBF4C0139
:100F30003B0166965FAF4EAF669729011801B70176
:100F4000A6019501ADB6BEB6CE0182960E941609E5
:100F50000E944906AE014D5B5F4F0E94D1098E0190
:100F60000F5F1F4F9E012D5B3F4FA201BE016E5DC3
:100F70007F4FC4010E9468068C01D40118968D91A0
:100F80009C911997DC01ED91FC910488F589E02D85
:100F90000995882351F0F40180859185DC01ED915C
:100FA000FC910288F389E02D0995F40180859185F3
:100FB000DC01ED91FC910284F385E02D0995F301AC
:100FC00001900020E9F7CF01861997090F96EDB738
:100FD000FEB7E81BF90B0FB6F894FEBF0FBEEDBFCE
:100FE0002DB73EB72F5F3F4F2901B301C9010E94C2
:100FF000782564ED70E0C2010E945225D40112965A
:10100000CD90DD90ED90FC90159760916702709106
:1010100068028091690290916A0218960D90BC91C5
:10102000A02DF40146815781ED91FC911197C616D0
:10103000D706E806F90661F40684F785E02DB201CB
:10104000CD010995892B09F0AFC081E090E0B2C0D5
:101050000484F585E02D83E492E060969FAF8EAF27
:1010600060976496CCAEDDAEEEAEFFAE6497BE0187
:10107000625B7F4FCD010995892B39F365E971E0FA
:10108000C4010E944E0765EB70E0C4010E944E0748
:10109000B201C4010E943C0767E171E0C4010E94F3
:1010A0004E07B101C4010E943C076DEB70E0C40122
:1010B0000E944E076BE871E0C4010E9470076DEF5B
:1010C00070E0C4010E944E0766966EAD7FAD6697D4
:1010D000C4010E943C0762E271E0C4010E943C0727
:1010E000BE016F5F7F4FC4010E94640764E871E036
:1010F000C4010E944E07B201C4010E9464076CE65D
:1011000071E0C4010E94700769E571E0C4010E94AA
:101110004E07B301C4010E943C0761E571E0C401C0
:101120000E94700764EE70E0C4010E94700760E3E3
:1011300071E0C4010E944E07BE016D5B7F4FC40188
:101140000E94640760E471E0C4010E944E07BE0182
:101150006D5B7F4FC8010E94050ABC01C4010E945B
:1011600064076BE971E0C4010E944E07CE018296CC
:101170000E940409CE0182960E944009882349F00A
:10118000CE0182960E944909682FC4010E942B0754
:10119000F1CF6BE971E0C4010E944E07C4010E94C7
:1011A000150780E090E006C065E971E0C4010E9487
:1011B0004E0772CF0FB6F894BEBE0FBEADBECB5A6F
:1011C000DF4F0FB6F894DEBF0FBECDBFDF91CF91DA
:1011D0001F910F91FF90EF90DF90CF90BF90AF9055
:1011E0009F908F907F906F905F904F903F902F9047
:1011F00008950F9300E020E040E060E085E692E093
:101200000E9497210F910895CF93DF93EC0118A2CC
:101210001F8E06960E94D90CCE010F960E94630B7A
:10122000CE014896DF91CF910C946C0CCF92DF9257
:10123000EF92FF920F931F93CF93DF93EC016B011B
:101240007A01890106960E94EE0CB701CE010F9635
:101250000E94780BB801CE0148960E94830CD98277
:10126000C882FB82EA821D830C83CE01DF91CF917D
:101270001F910F91FF90EF90DF90CF900C94040995
:1012800021E0FC01878D90A1059709F420E0822FD1
:1012900008950F931F93CF93DF93EC018F8D98A147
:1012A0008230910509F453C02CF4009759F001974E
:1012B00051F171C08330910509F458C0049709F4C5
:1012C00064C069C0CE0106960E94F40C882319F010
:1012D00081E090E014C0CE010F960E947E0B88231F
:1012E00019F082E090E00BC0CE0148960E94890C74
:1012F000882319F083E090E002C084E090E098A396
:101300008F8F8BE749C08E010A5F1F4FC8010E9473
:10131000F40C882339F0C801DF91CF911F910F9110
:101320000C94FD0CCE010F960E947E0B882319F0C1
:1013300082E090E008C0CE0148960E94890C882384
:1013400021F183E090E098A38F8F8CE225C08E017D
:10135000015F1F4FC8010E947E0B882361F3C80103
:10136000DF91CF911F910F910C94870B8E01085E36
:101370001F4FC8010E94890C882339F0C801DF91F2
:10138000CF911F910F910C94920C85E090E098A35F
:101390008F8F8DE701C080E0DF91CF911F910F917A
:1013A0000895CF92DF92EF92FF920F931F93CF9306
:1013B000DF938A01FA012AE0C22ED12CE12CF12C14
:1013C000EF01A70196010E94E924605D6883FE0198
:1013D0003196B901CA01611571058105910581F741
:1013E0001982F801EC17FD0730F488819081988309
:1013F00081932197F7CFC801DF91CF911F910F9172
:10140000FF90EF90DF90CF900895AB01BC0180E09A
:1014100090E00C94D1090C94320E0C9436111F9369
:10142000CF93DF93EB01DA011196CA0181969E01F9
:10143000E991F0E064E0F595E7956A95E1F7E25609
:10144000FE4F1491BD0161507109FB011083F90138
:101450002081E22FEF70F0E0E256FE4FE491EC9332
:101460001296A817B90719F7FA0110A2DF91CF91C8
:101470001F9108958F929F92AF92BF92CF92DF9269
:10148000EF920F931F93CF93DF93CDB7DEB7CE5577
:10149000D1090FB6F894DEBF0FBECDBF6B01BA0104
:1014A00048015901013411052105310508F1CE012A
:1014B00001966E964FAF6E976F967FAF6F970E94B3
:1014C000320EA50194016E966FAD6E976F967FAD4B
:1014D0006F97CE0101960E943611B601CE0101969A
:1014E0000E94031280E1882E912CA12CB12C0AC0FD
:1014F000A801C6010E945D2580E488169104A1041C
:10150000B10459F040E450E048195909C601880D6A
:10151000991D60E070E00E946625F6019601205C4E
:101520003F4F80818E258193E217F307D1F7C25A8E
:10153000DF4F0FB6F894DEBF0FBECDBFDF91CF9166
:101540001F910F91EF90DF90CF90BF90AF909F9041
:101550008F900895CF92DF92EF920F931F93CF93C6
:10156000DF93CDB7DEB7C054D1090FB6F894DEBF14
:101570000FBECDBF6C0189019A01FC01E45AFF4FF7
:10158000718360833296008311832283338386E3E1
:10159000E82EAB01BE016F5F7F4FC6010E943A0A81
:1015A000C6010E94040E20E430E040E050E0BE019D
:1015B0006F5F7F4FC6010E943611C05CDF4F0FB6D0
:1015C000F894DEBF0FBECDBFDF91CF911F910F9179
:1015D000EF90DF90CF900895AF92BF92CF92DF92BD
:1015E000EF920F931F93CF93DF93CDB7DEB7C05524
:1015F000D1090FB6F894DEBF0FBECDBF6C015B0101
:10160000FC01E25AFF4F0081118122813381329720
:10161000408151818CE5E82EBE016F5F7F4FC6018E
:101620000E943A0ABE016F5B7F4FC6010E940312FF
:10163000C6010E94040E20E530E040E050E0BE010B
:101640006F5F7F4FC6010E943611B501C6010E942F
:101650000312C05BDF4F0FB6F894DEBF0FBECDBFE5
:10166000DF91CF911F910F91EF90DF90CF90BF90BE
:10167000AF900895EF92FF920F931F93CF93DF9354
:10168000CDB7DEB760970FB6F894DEBF0FBECDBF03
:101690008C017B01BE016F5F7F4F0E94EC0AA701A6
:1016A000BE016F5F7F4FC8010E940F0A60960FB6A0
:1016B000F894DEBF0FBECDBFDF91CF911F910F9188
:1016C000FF90EF900895FC0110861782118210821E
:1016D000A581B681109739F08D919C91892B19F0D5
:1016E00013821282089584E190E0938382830895A7
:1016F000FC011482768365830C94630B21E0FC016A
:1017000082819381449709F420E0822F0895CF933A
:10171000DF93DC011296ED91FC911397E431F10512
:1017200008F0D6C0EC5CFF4F0C940B2541E050E074
:101730006BEC71E0DF91CF910C94F70DEC0162E05E
:1017400070E00E94BA0D2A813B812230310509F0F8
:10175000C0C0ED81FE812081318138872F83B9C0DF
:1017600083EC91E011969C938E9383E090E0139626
:101770009C938E9312978BE7ACC064E070E026C018
:101780001796ED91FC9118970280F381E02D119648
:10179000FC93EE93309719F08081811103C086E0AD
:1017A00090E060C085E090E05DC066E070E053C00E
:1017B00087E090E057C088E090E013969C938E936A
:1017C00012978BEB91E02AC069E070E0CD01DF91C8
:1017D000CF910C94BA0D1796ED91FC911897048057
:1017E000F581E02D1196FC93EE93309719F08081EE
:1017F000811103C08BE090E035C08AE090E032C0F8
:101800006BE070E028C08CE090E02CC08DE090E0B0
:1018100013969C938E9312978FEA91E08D939C93ED
:101820004DC06EE070E0D2CF1796ED91FC91189705
:101830000680F781E02D1196FC93EE93309719F016
:101840008081811103C080E190E00CC08FE090E0C6
:1018500009C060E170E0CD01DF91CF910C94CE0D15
:1018600081E190E013969C938E93129782E231C0AF
:101870001796ED91FC9118978081918118969C9311
:101880008E931797892B19F082E190E002C083E1D3
:1018900090E013969C938E9312978DE71AC017963B
:1018A000ED91FC9118978281938111969C938E9370
:1018B00082E090E013969C938E9312978CE209C07D
:1018C00084E190E013969C938E9312978DE501C06E
:1018D00080E0DF91CF910895FC0111821082A581F3
:1018E000B681109741F00D90BC91A02D109719F082
:1018F0008C91811105C085E090E0938382830895E7
:10190000138212820895FC011482768365830C94FD
:101910006C0C21E0FC0182819381059709F420E0A1
:10192000822F0895DC0112962D913C91139722305D
:101930003105D1F054F42115310581F02130310504
:10194000B1F562E070E00C94BA0D2330310531F14D
:101950002430310561F525E030E024C041E050E05D
:1019600067ED71E00C94F70DDC011596ED91FC919B
:1019700016970190F081E02DED93FC93309719F0CC
:101980002081211103C024E030E00CC023E030E0CE
:10199000DC0113963C932E93129707C064E070E02D
:1019A0000C94CE0DFC013383228382E2089580E003
:1019B0000895FC011086178211821082A581B681DC
:1019C000109739F08D919C91892B19F01382128216
:1019D00008958BE090E0938382830895FC01148244
:1019E000768365830C94D90C21E0FC01828193817C
:1019F0000B9709F420E0822F0895CF93DF93DC0149
:101A00001296ED91FC911397EB30F10508F08DC023
:101A1000E85BFF4F0C940B2541E050E061EE71E074
:101A2000DF91CF910C94F70DEC0162E070E00E9421
:101A3000BA0D2A813B812230310509F077C0ED8152
:101A4000FE812081318138872F8370C01796ED91F8
:101A5000FC9118970280F381E02D1196FC93EE9390
:101A6000309719F08081811103C084E090E002C0BA
:101A700083E090E013969C938E93129782E256C077
:101A800064E070E022C085E090E0F4CF86E090E072
:101A900013969C938E9312978AE348C01796ED9104
:101AA000FC9118970480F581E02D1196FC93EE933C
:101AB000309719F08081811103C088E090E0DACF7F
:101AC00087E090E0D7CF68E070E0CD01DF91CF9163
:101AD0000C94CE0D1796ED91FC9118978081918111
:101AE00018969C938E931797892B19F089E090E0B4
:101AF000C1CF8AE090E0BECF1796ED91FC91189788
:101B00008281938111969C938E9382E090E013964C
:101B10009C938E9312978CE209C08BE090E0139611
:101B20009C938E9312978DE701C080E0DF91CF9157
:101B30000895FC016C3099F044F46930B1F06A30DA
:101B400091F06830A1F482E60BC0623231F06C355E
:101B500021F06D3061F482E703C0648302C086E641
:101B600084836CE505C08EE6FBCF84E7F9CF148251
:101B7000862F0895DC01ED91FC911197AF014F5F25
:101B80005F4F11965C934E938491FA0144914111F9
:101B900004C013967C936E93129708950F931F932E
:101BA000CF93DF93EC018C81E881F981882339F0B0
:101BB0001C829081911116C07B836A8313C08B01B4
:101BC000CF010196998388836081CE010E94990D8F
:101BD0009C81911107C0E881F9819081911102C027
:101BE0001B830A83DF91CF911F910F9108959B0171
:101BF0002F5F3F4FFC0131832083FB016491FC0187
:101C000053834283862F0895FC0181E093E2A5E48B
:101C1000B7E680879187A287B38789E89BEAADEC16
:101C2000BFEE84879587A687B7878EEF9CEDAAEBDA
:101C3000B8E9808B918BA28BB38B86E794E5A2E306
:101C4000B0E1848B958BA68BB78B108E118E128E84
:101C5000138E1082118212821382148215821682D0
:101C6000178208950C94040E2F923F924F925F9228
:101C70006F927F928F929F92AF92BF92CF92DF929C
:101C8000EF92FF920F931F93CF93DF93CDB7DEB701
:101C9000CD55D1090FB6F894DEBF0FBECDBF279644
:101CA0009FAF8EAF2797FB0133969E012F5F3F4F6B
:101CB0006D5B7F4FDF0113978C91408190E0A0E036
:101CC000B0E06C017D01F42AAF0141505109DA0105
:101CD0004C91E42AAF0142505109DA014C91D42AC7
:101CE000D901CD92DD92ED92FD929D013496E617D9
:101CF000F70701F72796AEADBFAD279718964D9021
:101D00005D906D907C901B972D964CAE5DAE6EAE47
:101D10007FAE2D971C964D905D906D907C901F9797
:101D200061964CAE5DAE6EAE7FAE619750964D90B3
:101D30005D906D907C90539765964CAE5DAE6EAEA7
:101D40007FAE659754964D905D906D907C905797BF
:101D500069964CAE5DAE6EAE7FAE69974CEE242EAA
:101D600041E0342E2D964CAC5DAC6EAC7FAC2D9723
:101D700025964CAE5DAE6EAE7FAE259769968CAC67
:101D80009DACAEACBFAC69976596CCACDDACEEACAF
:101D9000FFAC659761964CAD5DAD6EAD7FAD619763
:101DA00000E010E0F1014590559065907490F801C5
:101DB000E451FD4F2491F801E45DFC4FE49181E092
:101DC00090E08C0F9D1FA4E0EA9F800D911D1124CF
:101DD000FC0180819181A281B381480E591E6A1E47
:101DE0007B1ED501C4018C259D25AE25BF258423EE
:101DF0009523A623B72388259925AA25BB25840DDD
:101E0000951DA61DB71D25964CAC5DAC6EAC7FAC88
:101E10002597840D951DA61DB71D2F712C013D0121
:101E2000022E04C0440C551C661C771C0A94D2F781
:101E300021952F7104C0B695A795979587952A95FA
:101E4000D2F784299529A629B729840F951FA61FA3
:101E5000B71F0F5F1F4F24E0220E311C25968CAE5A
:101E60009DAEAEAEBFAE25970031110539F04601EB
:101E700057016A017B01AC01BD0194CF0CE212E075
:101E800029961FAF0EAF299723961FAE1EAE23973C
:101E90002996EEADFFAD2997259035904590549049
:101EA00023962EAD3FAD2397205F3F4FF901E451BC
:101EB000FD4F7490F901E45DFC4FE49121E030E0C6
:101EC0002C0F3D1F04E0E09F200D311D1124F9016E
:101ED0000081118122813381200E311E421E531E4A
:101EE0008A019B01082719272A273B270C211D213E
:101EF0002E213F210427152726273727020D131DE2
:101F0000241D351D080D191D2A1D3B1DE72DEF71E0
:101F1000480159010E2E04C0880C991CAA1CBB1C38
:101F20000A94D2F7E195EF7104C03695279517957D
:101F30000795EA95D2F7082919292A293B2928016A
:101F40003901480E591E6A1E7B1E23962EAD3FADE9
:101F500023972F5F3F4F23963FAF2EAF23972996AE
:101F60000EAD1FAD29970C5F1F4F29961FAF0EAF07
:101F70002997460157012031310539F06A017B016B
:101F8000AC01BD01D301C20183CF2CE632E0239620
:101F90003FAF2EAF2397212C312C2396EEADFFAD12
:101FA000239785909590A590B4909101205E3F4F26
:101FB000F901E451FD4F049128960FAF2897F901DC
:101FC000E45DFC4FE4918C019D0104251525262537
:101FD00037250427152726273727C00ED11EE21ED6
:101FE000F31E8C0C9D1CAE1CBF1C21E030E02C0F9E
:101FF0003D1F04E0E09F200D311D1124F901C08038
:10200000D180E280F3808C0C9D1CAE1CBF1C2896F6
:10201000EFAD2897EF71950184010E2E04C0000FDB
:10202000111F221F331F0A94D2F7E195EF7104C0EC
:10203000B694A79497948794EA95D2F7802A912A28
:10204000A22AB32A840C951CA61CB71C1FEF211AC8
:10205000310A23962EAD3FAD23972C5F3F4F239639
:102060003FAF2EAF23976A017B0130E12316310485
:1020700039F0AC01BD01D301C201240135018DCF7E
:102080003CEA232E32E0332E29961FAE1EAE29974E
:10209000F101C590D590E590F4902596CCAEDDAEDB
:1020A000EEAEFFAE259729962EAD3FAD2997205D68
:1020B0003F4FF901E451FD4FD4906E96DFAE6E971D
:1020C000F901E45DFC4FE491EE24E394F12CEC0E75
:1020D000FD1E04E0E09FE00CF11C1124F701C0801C
:1020E000D180E280F38025960CAD1DAD2EAD3FADC5
:1020F00025970C0D1D1D2E1D3F1D25960CAF1DAFE8
:102100002EAF3FAF25978C019D010095109520952E
:102110003095082919292A293B2968017901C42405
:10212000D524E624F72425960CAD1DAD2EAD3FAD8C
:102130002597C00ED11EE21EF31E97018601040FE3
:10214000151F261F371F6E96EFAD6E97EF71B90101
:10215000A8010E2E04C0440F551F661F771F0A9456
:10216000D2F7E195EF7104C036952795179507953D
:10217000EA95D2F7042B152B262B372B080D191DAA
:102180002A1D3B1D29964EAD5FAD29974F5F5F4FCE
:1021900029965FAF4EAF299754E0250E311CAC0154
:1021A000BD012996EEADFFAD2997709739F0D301A7
:1021B000C20124013501480159016ACF2D96CCACEA
:1021C000DDACEEACFFAC2D978C0D9D1DAE1DBF1D83
:1021D0002796EEADFFAD279780879187A287B387BB
:1021E0006196CCACDDACEEACFFAC61970C0D1D1D67
:1021F0002E1D3F1D04871587268737876596CCAC33
:10220000DDACEEACFFAC65978C0C9D1CAE1CBF1C0E
:10221000808A918AA28AB38A6996CCACDDACEEAC96
:10222000FFAC69974C0C5D1C6E1C7F1C448A558A60
:10223000668A778A80E090E0C35ADF4F0FB6F89441
:10224000DEBF0FBECDBFDF91CF911F910F91FF90E9
:10225000EF90DF90CF90BF90AF909F908F907F9046
:102260006F905F904F903F902F9008952F923F92E4
:102270004F925F926F927F928F929F92AF92BF9296
:10228000CF92DF92EF92FF920F931F93CF93DF9342
:10229000EC018B0169017A01888D998DAA8DBB8D26
:1022A00080349105A105B10508F095C080E4482E61
:1022B000512C612C712C1E012CE1220E311CC114F9
:1022C000D104E104F10409F484C0888D998DAA8DAC
:1022D000BB8D0097A105B10561F520E4C216D104BC
:1022E000E104F10430F1B801CE010E94340E0097F0
:1022F00009F074C0288139814A815B816C817D81BC
:102300008E819F813E5F4F4F5F4F6F4F7F4F8F4F4B
:102310009F4F288339834A835B836C837D838E83BD
:102320009F83005C1F4F80E4C81AD108E108F108C0
:10233000C6CFB301A201481B590B6A0B7B0B4601A8
:1023400057014C155D056E057F0510F44A015B01D0
:102350004C96A401B8018C0F9D1F0E945D25888DAD
:10236000998DAA8DBB8D880D991DAA1DBB1D888FC7
:10237000998FAA8FBB8F080D191DC818D908EA08B4
:10238000FB0880349105A105B10509F098CFB10192
:10239000CE010E94340E009709F5288139814A81C7
:1023A0005B816C817D818E819F813E5F4F4F5F4F4E
:1023B0006F4F7F4F8F4F9F4F288339834A835B83B3
:1023C0006C837D838E839F83188E198E1A8E1B8E4D
:1023D00076CF20E001C022E090E001C0282F822FBC
:1023E000DF91CF911F910F91FF90EF90DF90CF90F1
:1023F000BF90AF909F908F907F906F905F904F9025
:102400003F902F9008954F925F926F927F928F929C
:102410009F92AF92BF92CF92DF92EF92FF920F9373
:102420001F93CF93DF93DC0158964D905D906D9094
:102430007C905B97B0E44B1651046104710408F082
:1024400019C14B01EC01D301C20123E0880F991F90
:10245000AA1FBB1F2A95D1F75C016D019C01A60143
:1024600060E070E080E090E0A880B980CA80DB8006
:10247000EC80FD800E811F810E943A2528833983DC
:102480004A835B836C837D838E839F83D301C201E8
:102490000196A11DB11D888F998FAA8FBB8FFE0158
:1024A000E40DF51D20E8248FC997A105B10510F1B1
:1024B000888D998DAA8DBB8D80349105A105B105BC
:1024C00078F4AC01BD014F5F5F4F6F4F7F4F488F76
:1024D000598F6A8F7B8FFE01E80FF91F148EE8CFAA
:1024E000BE01645E7F4FCE010E94340E188E198E9D
:1024F0001A8E1B8E888D998DAA8DBB8D8833910580
:10250000A105B10578F4AC01BD014F5F5F4F6F4F7E
:102510007F4F488F598F6A8F7B8FFE01E80FF91F1D
:10252000148EE8CFE881D980EA80FB801C81CD80C1
:102530007E80FF81CE018C5A9F4FDC01EC935E01BF
:10254000B5E5AB0EB11C2E2F3D2DA701612F7C2DC3
:10255000872D9F2F08E00E941E25D5012C935E0138
:10256000B6E5AB0EB11C2E2F3D2DA701612F7C2DA2
:10257000872D9F2F00E10E941E25D5012C935E011F
:10258000B7E5AB0EB11C2E2F3D2DA701612F7C2D81
:10259000872D9F2F08E10E941E25D5012C935E01F7
:1025A000B8E5AB0EB11C2E2F3D2DA701612F7C2D60
:1025B000872D9F2F00E20E941E25D5012C935E01DE
:1025C000B9E5AB0EB11C2E2F3D2DA701612F7C2D3F
:1025D000872D9F2F08E20E941E25D5012C935E01B6
:1025E000BAE5AB0EB11C2E2F3D2DA701612F7C2D1E
:1025F000872D9F2F00E30E941E25D5012C935E019D
:10260000BBE5AB0EB11C2E2F3D2DA701612F7C2DFC
:10261000872D9F2F08E30E941E25F5012083BE0110
:10262000645E7F4FCE010E94340EFE013896D401C5
:1026300013968E01085E1F4FCF019D012350310973
:102640004081E90148832F5F3F4F4181E901488381
:102650002F5F3F4F4191519161917191E9016883E1
:10266000EC018B818C931496E017F10729F780E039
:1026700090E002C082E090E0DF91CF911F910F9136
:10268000FF90EF90DF90CF90BF90AF909F908F9092
:102690007F906F905F904F9008950F931F93CB01A1
:1026A000F90101900020E9F731978F01021B130B0C
:1026B000FB0101900020E9F73197BF01681B790BFE
:1026C0000E9462158F3F79F01AE068E873E180E0BC
:1026D00090E00E94601C0E94B415982F9D7F21F409
:1026E000115099F701C084E090E01F910F91089577
:1026F0000C94B415CB01BA010C9488160F9300E02A
:1027000020E040E060E08CE692E00E9497210F918B
:102710000895CF93DF931F92CDB7DEB76983DC01B5
:10272000ED91FC910280F381E02D41E050E0BE018B
:102730006F5F7F4F09950F90DF91CF9108950895B6
:1027400021E0FC0184858F3F09F420E0822F089569
:10275000EF92FF920F931F93CF93DF93CDB7DEB726
:102760002E970FB6F894DEBF0FBECDBF8C017A0155
:10277000CE0107966D877E870E948D21AE01495F4D
:102780005F4F6D857E858BE692E00E947A130097FD
:10279000C1F0D801ED91FC910484F585E02D83E42E
:1027A00092E09A83898389859A85AB85BC858B83E2
:1027B0009C83AD83BE83A701BE016F5F7F4FC801BD
:1027C00009952E960FB6F894DEBF0FBECDBFDF91F0
:1027D000CF911F910F91FF90EF900895FC01848598
:1027E0008F3F11F00C94B11980E090E008950F93A1
:1027F0001F93CF93DF931F92CDB7DEB78C01DC011F
:10280000ED91FC910480F581E02D0995892B59F01B
:1028100040E0BE016F5F7F4FF80184850E94E91997
:10282000898190E002C08FEF9FEF0F90DF91CF91F1
:102830001F910F9108950F931F93CF93DF931F92D2
:10284000CDB7DEB78C01DC01ED91FC910480F58100
:10285000E02D0995892B59F041E0BE016F5F7F4F54
:10286000F80184850E94E919898190E002C08FEF08
:102870009FEF0F90DF91CF911F910F910895CF930C
:10288000DF9300D0CDB7DEB75A834983AE014F5FE7
:102890005F4FFC0184850E94321A91E0892790E005
:1028A0009195819591090F900F90DF91CF910895A7
:1028B0000F931F93CF93DF938C01EA01FC01848572
:1028C000843040F081E090E0F8019383828380E0DF
:1028D00090E00DC02097B1F30E946E1A882391F307
:1028E000F80184850E94B91A882361F3CE01DF9133
:1028F000CF911F910F910895FC011382128288EEEF
:1029000093E0A0E0B0E084839583A683B78387E15A
:1029100092E09183808384E084870895FC0184851C
:102920008F3F11F00C947C1980E008950F931F9352
:10293000CF93DF93EC018C858F3FF9F00E9448190B
:10294000EC85F0E0EE0FFF1FE45FFE4F8FEF9FEF8F
:102950009183808302E310E0CE010E948E148823CD
:1029600051F00150110939F064E670E080E090E028
:102970000E94601CF1CF8FEF8C87DF91CF911F9168
:102980000F910895FC0124852F3F71F00E948E1451
:10299000843038F09BEF980F933018F091E08A3034
:1029A00009F490E0892F089580E00895ECE0F1E0CB
:1029B00080E090E0219131912F3F3F4F29F0019627
:1029C00084309105B9F78FEF0895AF92BF92CF92FF
:1029D000DF92EF92FF920F93CF93DF9300D0CDB7AA
:1029E000DEB75C017B0149835A830E94D614282FED
:1029F000D5011C968C9349815A818F3FA9F1F7012B
:102A0000628173818481958100E00E94F118D50173
:102A10001C968C9190E0FC01EE0FFF1FE45FFE4FCF
:102A2000918380830E942F1C6B017C01D501ED9165
:102A3000FC910488F589E02DC501099581111DC01F
:102A40000E942F1CDC01CB018C199D09AE09BF0926
:102A500080319742A105B10580F461E070E080E02B
:102A600090E00E94601CE2CF6FEF71E089E892E095
:102A70000E94CD2080E090E00EC0D501ED91FC9148
:102A80000488F589E02DC501099521E090E08111C8
:102A900001C020E0822F0F900F90DF91CF910F9116
:102AA000FF90EF90DF90CF90BF90AF9008950F937D
:102AB00000E020E040E060E082E792E00E949721A1
:102AC0000F910895CF92DF92EF92FF920F931F9391
:102AD000CF93DF9300D01F92CDB7DEB76C01162FD6
:102AE0004B83790180917E02811105C00E94B51649
:102AF00081E080937E020E94EE160E94CF1663E072
:102B000082E10E94D51840E0612FC6010E94431760
:102B100040E061E0CE0103960E94431741E0602F40
:102B2000C7010E9443170E94EE161A8219829E0165
:102B30002F5F3F4FAE014E5F5F4F61E082E10E9429
:102B40008817892B11F48FEF8A830E94D3168A810C
:102B50000F900F900F90DF91CF911F910F91FF90E9
:102B6000EF90DF90CF900895CF93DF9300D0CDB753
:102B7000DEB780917E02811105C00E94B51681E00A
:102B800080937E020E94EE160E94CF1660E080E2E3
:102B90000E94D5180E94EE168FEF8A8319829E013B
:102BA0002F5F3F4FAE014E5F5F4F61E080E20E94BA
:102BB00088170E94D3168A810F900F90DF91CF91D2
:102BC00008950F931F93CF93DF9300D01F92CDB73B
:102BD000DEB78C0180917E02811105C00E94B5167E
:102BE00081E080937E020E94EE160E94CF1661E083
:102BF00084E30E94D518F80101900020E9F731978D
:102C0000BF01601B710B41E0C8010E9443170E9485
:102C1000EE161A8219829E012F5F3F4FAE014E5F62
:102C20005F4F61E084E30E9488178B830E94D31674
:102C30008B810F900F900F90DF91CF911F910F918B
:102C40000895CF92DF92EF92FF920F93CF93DF938D
:102C5000CDB7DEB72D970FB6F894DEBF0FBECDBF50
:102C60007C010FEF2FEF4FEF6FEFCE0101960E9427
:102C7000972180917E02811105C00E94B51681E0E6
:102C800080937E020E94EE160E94CF1660E085E3DC
:102C90000E94D5180E94EE161B869E01255F3F4FAD
:102CA000AE01495F5F4F61E085E30E948817892B81
:102CB000C9F0BE01695F7F4FC7010E94A32121E0D7
:102CC00090E0F701C280D380E480F5804B815C8185
:102CD0006D817E81C416D506E606F70609F420E06C
:102CE000822F02C080E090E08C879D870E94D316DF
:102CF0008C859D852D960FB6F894DEBF0FBECDBF97
:102D0000DF91CF910F91FF90EF90DF90CF900895DA
:102D10000F931F93CF938B010E94E115811102C085
:102D200090E014C0CAE0C8010E942116892B49F422
:102D3000C15039F068EE73E080E090E00E94601CC2
:102D4000F2CF81E090E0C11101C080E0CF911F91EE
:102D50000F9108950F9300E020E040E060E088E7E5
:102D600092E00E9497210F9108950E94111B61E04B
:102D70008AE00E94501B60E087E00E94501B61E0E7
:102D800089E00E94501B61E08AE00E948C1B61E098
:102D90008AE00E948C1B60E089E00C948C1B60E050
:102DA0008AE00C948C1B61E08AE00C948C1BCF931E
:102DB000DF931F92CDB7DEB7898389818EBD000076
:102DC0000DB407FEFDCF8EB52AE030E000002150A3
:102DD0003109E1F70F90DF91CF91089587E00E94CC
:102DE000BC1B892BD9F70895CF93DF93EC018FEFAC
:102DF0000E94D71688838AE090E000000197E9F7E7
:102E0000DF91CF9108951F93CF93DF93182FEB019C
:102E1000CB010E94F41621E030E08881811711F087
:102E200020E030E0C901DF91CF911F910895CF9349
:102E3000DF931F92CDB7DEB71982CE0101960E94B3
:102E4000F41689810F90DF91CF9108950F931F930E
:102E5000CF93C82F09EE13E00E9417178F3E39F069
:102E60000150110939F08C13F7CF8C2F03C08FEF6D
:102E70009FEF05C021E090E08C1320E0822FCF91DE
:102E80001F910F910895DF92EF92FF920F931F937E
:102E9000CF93DF937C01C62FD42E862F0E94D716A6
:102EA0008701D0E0C8018E199F098C179D0734F463
:102EB000F80181918F010E94D716F4CFF1E0DF1263
:102EC0000AC08EEEDF91CF911F910F91FF90EF908E
:102ED000DF900C94D716DF91CF911F910F91FF9047
:102EE000EF90DF900895CF93C82F892F0E94D716B7
:102EF0008C2FCF910C94D716CF93DF93EC018FEFEB
:102F00000E94D716209709F08883DF91CF9108950A
:102F1000CF92DF92EF92FF920F931F93CF93DF93A5
:102F20001F92CDB7DEB7182F062F6A0179011982DB
:102F300080EE0E942617892B19F480E090E02AC0C9
:102F4000CE0101960E94F416106889818113F5CF95
:102F5000CE0101960E94F41689818013EECFC7013D
:102F60000E947C1700E010E0F701608170E0061716
:102F7000170744F4C601800F911F0E94F4160F5FDB
:102F80001F4FF2CFBE016F5F7F4F8EEE0E9403177F
:102F900081E090E00F90DF91CF911F910F91FF9012
:102FA000EF90DF90CF900895CF92DF92EF92FF9253
:102FB0000F931F93CF93DF931F92CDB7DEB7182FD8
:102FC0006B017A01198280EE0E942617892B19F471
:102FD00080E090E029C0CE0101960E94F4161068AE
:102FE00089818113F5CF0E941717811109C0BE0195
:102FF0006F5F7F4F8EEE0E94031781E090E014C058
:10300000C7010E947C178601F701208130E0F8019A
:10301000EC19FD09E217F30754F78FEF0E94D7165A
:10302000F80181938F01F0CF0F90DF91CF911F9125
:103030000F91FF90EF90DF90CF9008951F93CF9363
:10304000DF93EC018FEF0E94D716182F8FEF0E94AD
:10305000D716212F110F330B322F2227A901482B0E
:10306000CA01209711F099838883DF91CF911F9136
:103070000895CF92DF92EF92FF920F931F93CF9319
:10308000DF931F92CDB7DEB7182F6B017A0119823B
:1030900080EE0E942617892B19F480E090E029C069
:1030A000CE0101960E94F416106889818113F5CF34
:1030B0000E941717811109C0BE016F5F7F4F8EEE0E
:1030C0000E94031781E090E014C0C7010E941E18FF
:1030D0008601F7018081918198012C193D092817FB
:1030E000390750F78FEF0E94D716F80181938F01AF
:1030F000F0CF0F90DF91CF911F910F91FF90EF9044
:10310000DF90CF900895DF92EF92FF920F931F937D
:10311000CF93DF93D82EE92E8B01F42ECB010E94A2
:103120007317CD2DDE2D0C0F1D1FC017D10721F0F9
:1031300089910E94D716F9CF81E0F8120AC08EEE6D
:10314000DF91CF911F910F91FF90EF90DF900C9442
:10315000D716DF91CF911F910F91FF90EF90DF90E5
:1031600008951F93CF93DF9300D0CDB7DEB7182F0C
:1031700082E06A8399830E94D7169981892F0E94E1
:10318000D716812F0E94D7166A81613041F48EEEE6
:103190000F900F90DF91CF911F910C94D7160F9045
:1031A0000F90DF91CF911F910895CF93DF93D82F88
:1031B000C62F80EE0E94D7168AE090E00E94861CFF
:1031C0008D2F8F770E94D7168C2F0E94D716C11192
:1031D00005C08EEEDF91CF910C94D716DF91CF9181
:1031E0000895EF92FF920F93CF93DF93CDB7DEB7A1
:1031F00028970FB6F894DEBF0FBECDBF6B837C83DC
:103200008D839E837A012F83088780917F028111AD
:1032100005C00E94B51681E080937F020E94EE16E1
:103220000E94CF1664E08DE20E94D51840E064E071
:10323000CE0103960E94431760E0C7010E94B118B7
:1032400040E061E0CE0107960E94431741E061E053
:10325000CE0108960E9443170E94EE161A82198228
:103260009E012F5F3F4FAE014E5F5F4F61E08DE2E9
:103270000E9488170E94D31628960FB6F894DEBFD6
:103280000FBECDBFDF91CF910F91FF90EF900895CA
:10329000CF93DF9300D01F92CDB7DEB78B838091A1
:1032A0007F02811105C00E94B51681E080937F02E4
:1032B0000E94EE160E94CF1661E08EE20E94D518A1
:1032C00041E061E0CE0103960E9443170E94EE1692
:1032D0001A8219829E012F5F3F4FAE014E5F5F4FF2
:1032E00061E08EE20E9488170E94D3160F900F9023
:1032F0000F90DF91CF910895CF93DF9300D01F926D
:10330000CDB7DEB78B8380917F02811105C00E940B
:10331000B51681E080937F020E94EE160E94CF16C0
:1033200061E08FE20E94D51841E061E0CE01039692
:103330000E9443170E94EE161A8219829E012F5F87
:103340003F4FAE014E5F5F4F61E08FE20E948817F2
:103350000E94D3168A810F900F900F90DF91CF912A
:103360000895CF93DF9300D000D0CDB7DEB78C8324
:1033700080917F02811105C00E94B51681E0809383
:103380007F020E94EE160E94CF1661E08BE20E943F
:10339000D51841E061E0CE0104960E9443170E94D7
:1033A000EE161B821A8219829E012D5F3F4FAE01DD
:1033B0004F5F5F4F61E08BE20E9488170E94D31637
:1033C00089819A810F900F900F900F90DF91CF918C
:1033D0000895FF920F931F93CF93DF9300D01F9216
:1033E000CDB7DEB78B838B01F42E80917F028111E4
:1033F00005C00E94B51681E080937F020E94EE1600
:103400000E94CF1662E08CE20E94D51840E061E095
:10341000CE0103960E94431761E08F2D90E00E9439
:10342000B1180E94EE161A821982AE014F5F5F4FEB
:10343000BE016E5F7F4F8CE20E94D4170E94D316AC
:103440008981882329F08A81F801808381E001C085
:1034500080E00F900F900F90DF91CF911F910F910F
:10346000FF900895EF92FF920F931F93CF93DF93F6
:103470001F92CDB7DEB789837B018A0180917F02DD
:10348000811105C00E94B51681E080937F020E94E1
:10349000EE160E94CF1661E085E40E94D51841E047
:1034A00061E070E0CE0101960E9483180E94EE1642
:1034B000A801B70185E40E9439180E94D31681E063
:1034C000F80120813181232B09F480E00F90DF91F6
:1034D000CF911F910F91FF90EF900895EF92FF927F
:1034E0000F931F93CF93DF9300D01F92CDB7DEB71A
:1034F0008B838B017A0180917F02811105C00E942C
:10350000B51681E080937F020E94EE160E94CF16CE
:1035100062E084E40E94D51840E061E070E0CE01F2
:1035200003960E94831841E0B701C8010E948318E6
:103530000E94EE161A821982AE014F5F5F4FBE01E4
:103540006E5F7F4F84E40E94D4170E94D316898156
:10355000882321F081E09A81913009F080E00F907A
:103560000F900F90DF91CF911F910F91FF90EF90EF
:103570000895FF920F931F93CF93DF9300D01F9274
:10358000CDB7DEB78B831A82198200E010E0FF24EA
:10359000F39480917F02811104C00E94B516F092CD
:1035A0007F020E94EE160E94CF1661E08AE20E941E
:1035B000D51841E061E0CE0103960E9443170E94B6
:1035C000EE169E012F5F3F4FAE014E5F5F4F61E0F1
:1035D0008AE20E9488170E94D3168A81811109C04D
:1035E0000F5F1F4F64E670E080E090E00E94601C77
:1035F00002C000E010E08A81882331F081E00931C7
:10360000110531F480E004C00931110510F2F6CF44
:103610000F900F900F90DF91CF911F910F91FF901E
:10362000089561E08AE00E948C1B61E08AE00E94BC
:10363000501B8CB580618CBD8CB580648CBD61E005
:103640008DE00E94501B61E08BE00C94501B833096
:1036500081F028F4813099F08230A1F0089586300D
:10366000A9F08730B9F08430D1F4809180008F7D4B
:1036700003C0809180008F7780938000089584B587
:103680008F7702C084B58F7D84BD08958091B0008E
:103690008F7703C08091B0008F7D8093B000089534
:1036A000CF93DF9390E0FC01E058FC4F2491FC01A4
:1036B000EC56FC4F8491882361F190E0880F991FAC
:1036C000FC01E454FC4FC591D491FC01EE54FC4F35
:1036D000A591B491611109C09FB7F8948881209594
:1036E00082238883EC912E230BC0623061F49FB754
:1036F000F8943881822F809583238883EC912E2B38
:103700002C939FBF06C08FB7F894E8812E2B288397
:103710008FBFDF91CF9108951F93CF93DF93282F11
:1037200030E0F901E459FC4F8491F901E058FC4F75
:10373000D491F901EC56FC4FC491CC23C9F0162F5B
:1037400081110E94271BEC2FF0E0EE0FFF1FEE54BB
:10375000FC4FA591B4918FB7F894111105C09C91BD
:10376000ED2FE095E92302C0EC91ED2BEC938FBF98
:10377000DF91CF911F910895CF93DF93282F30E0F1
:10378000F901E459FC4F8491F901E058FC4FD491C0
:10379000F901EC56FC4FC491CC2391F081110E94A9
:1037A000271BEC2FF0E0EE0FFF1FE855FC4FA59113
:1037B000B491EC91ED2381E090E021F480E002C02F
:1037C00080E090E0DF91CF9108951F920F920FB6A5
:1037D0000F9211242F933F938F939F93AF93BF9397
:1037E0008091810290918202A0918302B091840223
:1037F0003091800223E0230F2D3720F40196A11D84
:10380000B11D05C026E8230F0296A11DB11D20930E
:1038100080028093810290938202A0938302B093EE
:1038200084028091850290918602A0918702B091D6
:1038300088020196A11DB11D809385029093860296
:10384000A0938702B0938802BF91AF919F918F910F
:103850003F912F910F900FBE0F901F9018952FB78B
:10386000F89460918102709182028091830290911C
:1038700084022FBF08953FB7F894809185029091FC
:103880008602A0918702B091880226B5A89B05C048
:103890002F3F19F00196A11DB11D3FBFBA2FA92FCF
:1038A000982F8827820F911DA11DB11DBC01CD014C
:1038B00042E0660F771F881F991F4A95D1F7089538
:1038C000CF92DF92EF92FF92CF93DF936B017C0157
:1038D0000E943B1CEB01C114D104E104F10479F016
:1038E0000E943B1C6C1B7D0B683E7340A0F381E083
:1038F000C81AD108E108F108C851DC4FECCFDF91BC
:10390000CF91FF90EF90DF90CF900895019739F01D
:10391000880F991F880F991F02970197F1F7089553
:10392000789484B5826084BD84B5816084BD85B59A
:10393000826085BD85B5816085BDEEE6F0E0808161
:1039400081608083E1E8F0E0108280818260808382
:10395000808181608083E0E8F0E080818160808305
:10396000E1EBF0E0808184608083E0EBF0E0808137
:1039700081608083EAE7F0E08081846080838081D9
:103980008260808380818160808380818068808381
:103990001092C10008950E94901C0E941502C3E27B
:1039A000DFE10E946F022097E1F30E94231FF9CF0D
:1039B0000F931F93CF93DF93EC010E942F1C688716
:1039C00079878A879B87E881F9810680F781E02DD6
:1039D000CE01099597FF17C00E942F1C08851985F5
:1039E0002A853B85DC01CB01801B910BA20BB30B1D
:1039F0000C811D812E813F8180179107A207B3079B
:103A000010F38FEF9FEFDF91CF911F910F910895EA
:103A10000F931F93CF93DF93EC010E942F1C6887B5
:103A200079878A879B87E881F9810084F185E02D79
:103A3000CE01099597FF17C00E942F1C0885198594
:103A40002A853B85DC01CB01801B910BA20BB30BBC
:103A50000C811D812E813F8180179107A207B3073A
:103A600010F38FEF9FEFDF91CF911F910F9108958A
:103A7000CF93DF93EC01CE010E94081D97FD11C08A
:103A80008D32910571F09C01205331092A303105A6
:103A900040F0E881F9810680F781E02DCE0109959B
:103AA000EACFDF91CF9108956F927F928F929F928C
:103AB000AF92BF92CF92DF92EF92FF920F931F933C
:103AC000CF93DF93DB01EC91E11102C081E040C0B4
:103AD00039014A016B015C01E12CF12CC0E0D0E01E
:103AE000C5010E94D81C181619068CF5F601EC0FBA
:103AF000FD1F2081022E000C330B8217930711F05B
:103B0000C0E0D0E0F601EC0FFD1F2081022E000C7A
:103B1000330B8217930721F42196C815D905B0F607
:103B20000115110589F0F301EE0DFF1D2081022E14
:103B3000000C330B8217930739F4BFEFEB1AFB0A23
:103B4000E016F10668F203C0E12CF12CC9CF80E049
:103B5000DF91CF911F910F91FF90EF90DF90CF9069
:103B6000BF90AF909F908F907F906F9008950F932C
:103B70001F939A01FA0101900020E9F731978F0114
:103B8000041B150BFB0101900020E9F73197AF01F1
:103B9000461B570B0E94541D1F910F91089540E042
:103BA00050E00C94B71D8F929F92AF92BF92CF922C
:103BB000DF92FF920F931F93CF93DF9300D000D03B
:103BC000CDB7DEB78C0169830E94381DFC01698185
:103BD00097FD4CC020E030E0A901F12CC62E660F05
:103BE000DD08EC15FD05F1F0ED32F105C9F0CF016E
:103BF000C0970A97B8F4AAE0B0E00E9411254F01DF
:103C0000FF0FAA08BB08DC01CB01880D991DAA1D76
:103C1000BB1D9C01AD01205331094109510902C06E
:103C2000FF24F394D801ED91FC910680F781E02DFB
:103C3000C80129833A834B835C830995C8010E949C
:103C4000081DFC01C09729813A814B815C810A974C
:103C500040F2EC15FD0529F2FF2061F06627772779
:103C6000CB01621B730B840B950B06C060E070E008
:103C7000CB0102C0CA01B9010F900F900F900F90B5
:103C8000DF91CF911F910F91FF90DF90CF90BF9068
:103C9000AF909F908F90089561E00C94D31DFC012C
:103CA00024853585F901E05CFF4F80819181329652
:103CB00020813181821B930B8F7399270895DC013A
:103CC0001C96ED91FC911D97DF01A05CBF4F2D91DB
:103CD0003C91119712968D919C9111972817390755
:103CE00039F08D919C91E80FF91F808190E0089543
:103CF0008FEF9FEF0895FC01A485B585FD01E05C81
:103D0000FF4F2081318132968081918128173907B8
:103D100079F080819181A80FB91F8C912081318128
:103D20002F5F3F4F2F7333273183208390E0089517
:103D30008FEF9FEF0895FC0181A1882329F0A489CA
:103D4000B5898C9186FFFBCF11A208950F931F9325
:103D5000CF93DF93FC01A685B7858D01005C1F4FD3
:103D6000E8018881998101968F739927AD014E5B97
:103D70005F4FEA012881398182179307D1F3E80167
:103D800028813981A20FB31F6C93A685B785A05CEB
:103D9000BF4F11969C938E93A689B7892C9181E091
:103DA00090E0078C02C0880F991F0A94E2F7822BDB
:103DB0008C9381E081A30488F589E02D8081806463
:103DC000808381E090E0DF91CF911F910F91089562
:103DD00008951F920F920FB60F9211242F934F93B5
:103DE0005F938F939F93EF93FF938091C00082FD29
:103DF0001CC02091C60080912F0390913003019642
:103E00008F7399274091310350913203841795079E
:103E100071F0E0912F03F0913003E151FD4F2083C9
:103E20009093300380932F0302C08091C600FF91CE
:103E3000EF919F918F915F914F912F910F900FBEB6
:103E40000F901F90189589E892E00E944F1E892BD1
:103E500011F00C94E81E08951F920F920FB60F9266
:103E600011242F933F938F939F93EF93FF93209170
:103E7000EB023091EC028091ED029091EE02281756
:103E8000390731F48091C1008F7D8093C10014C047
:103E9000E091ED02F091EE02E555FD4F2081809119
:103EA000ED029091EE0201968F7399279093EE02A6
:103EB0008093ED022093C600FF91EF919F918F9127
:103EC0003F912F910F900FBE0F901F901895CF929A
:103ED000DF92EF92FF920F931F93CF93DF93EC014A
:103EE0006A017B014115514E6105710509F1EC89AB
:103EF000FD8981E090E008A002C0880F991F0A9414
:103F0000E2F7808360E079E08DE390E0A70196011D
:103F10000E94E92489019A010150110921093109FE
:103F20003695279517950795980101151041A8F02A
:103F3000EC89FD89108260E874E88EE190E0A701C9
:103F400096010E94E924DA01C9010197A109B1098A
:103F5000B695A795979587959C01E889F98930834F
:103F6000EA89FB89208319A2EE89FF89408181E0DB
:103F700090E09C010C8C02C0220F331F0A94E2F7E0
:103F8000242B2083EE89FF8940819C010D8C02C087
:103F9000220F331F0A94E2F7242B2083EE89FF8936
:103FA00040819C010E8C02C0220F331F0A94E2F75D
:103FB000242B2083EE89FF8920810F8C02C0880F7B
:103FC000991F0A94E2F7809582238083DF91CF9135
:103FD0001F910F91FF90EF90DF90CF90089581E0B7
:103FE0000895E9E8F2E01382128288EE93E0A0E0FF
:103FF000B0E084839583A683B78383E392E09183C3
:1040000080838FEE92E0958784878BEA92E0978792
:10401000868785EC90E0918B808B84EC90E0938B8D
:10402000828B80EC90E0958B848B81EC90E0978B79
:10403000868B82EC90E0918F808F86EC90E0938F5E
:10404000828F84E0848F83E0858F87E0868F85E090
:10405000878F81E080A30895CF92DF92EF92FF9245
:104060000F931F93CF93DF936C01EB017B01E40E61
:10407000F51E00E010E0CE15DF0561F06991D60174
:10408000ED91FC910190F081E02DC6010995080F9A
:10409000191FF1CFC801DF91CF911F910F91FF90B0
:1040A000EF90DF90CF9008956115710579F0FB01D5
:1040B00001900020E9F73197AF01461B570BDC0157
:1040C000ED91FC910280F381E02D099480E090E075
:1040D0000895AF92BF92CF92DF92EF92FF920F932B
:1040E0001F93CF93DF936C017B01C0E0D0E000E031
:1040F00010E0D70114968D919C911597C817D90798
:1041000088F4D601ED91FC91A080B180BE01C70179
:104110000E94C222682FC601F5010995080F191FD8
:104120002196E7CFC801DF91CF911F910F91FF90AA
:10413000EF90DF90CF90BF90AF9008950C945420F3
:10414000DC01ED91FC910190F081E02D09940F9339
:104150001F93CF93DF93EC016DE00E94A0208C01B0
:104160006AE0CE010E94A020800F911FDF91CF91C5
:104170001F910F9108950F931F93CF93DF93EC013D
:104180000E9469208C01CE010E94A720800F911F00
:10419000DF91CF911F910F9108950F931F93CF93AC
:1041A000DF93EC010E9454208C01CE010E94A720D5
:1041B000800F911FDF91CF911F910F9108958F92E2
:1041C0009F92AF92BF92CF92DF92EF92FF920F93A6
:1041D0001F93CF93DF93CDB7DEB7A1970FB6F894B7
:1041E000DEBF0FBECDBF6C01142FE52FCB01022F18
:1041F00019A2223008F40AE07E0121E2E20EF11C4D
:10420000802E912CA12CB12C612F7E2FA501940121
:104210000E94E924029F1019112481E0E81AF10894
:104220001A3014F4105D01C0195CF7011083122FCD
:10423000E32FCA01232B242B252B31F7B701C6010D
:104240000E945420A1960FB6F894DEBF0FBECDBFDA
:10425000DF91CF911F910F91FF90EF90DF90CF9062
:10426000BF90AF909F908F9008952115310541F434
:10427000DC01ED91FC910190F081E02D642F099417
:104280000C94DF209A01462F50E060E070E00C941F
:1042900035210C9451248F929F92AF92BF92CF926E
:1042A000DF92EF92FF920F931F93CF93DF937C01E6
:1042B0008B016C0182E0C80ED11C4701E5E08E0E37
:1042C000911CC0E0D0E0F60161916F014AE050E03E
:1042D000C8010E9442215C016EE2C8010E94A02038
:1042E0008A0D9B1DC80FD91FC814D90461F74AE075
:1042F00050E0F7016581C8010E9442218C0F9D1F8B
:10430000DF91CF911F910F91FF90EF90DF90CF90B1
:10431000BF90AF909F908F90089523E432E0FC010E
:1043200031832083128213821482158208950F93A1
:10433000FC0183E492E0918380836283438324833E
:1043400005830F910895FB01408151816281738142
:10435000FC0142835383648375830895E3E3F3E0B0
:1043600083E492E091838083128213821482158207
:104370000895FC01808191810C945124CF93DF93A7
:10438000EC0188819981009711F00E9451241982D3
:1043900018821D821C821B821A82DF91CF910895A0
:1043A0000F931F93CF93DF93EC018B016F5F7F4FD0
:1043B000888199810E94D322009731F09983888364
:1043C0001B830A8381E001C080E0DF91CF911F91C0
:1043D0000F910895CF93DF93EC0188819981892B08
:1043E00029F08A819B818617970760F4CE010E948D
:1043F000D021882341F08C819D81892B19F4E8819B
:10440000F981108281E0DF91CF910895EF92FF92C0
:104410000F931F93CF93DF93EC017B018A01BA01C5
:104420000E94EA21811104C0CE010E94BE2107C072
:104430001D830C83B701888199810E947825CE0164
:10444000DF91CF911F910F91FF90EF900895FC01A4
:1044500011821082138212821582148216826115D3
:10446000710551F0FB0101900020E9F73197AF0190
:10447000461B570B0C9406220895CF93DF93EC0153
:104480006115710559F0FB0101900020E9F73197A2
:10449000AF01461B570B0E94062202C00E94BE219C
:1044A000CE01DF91CF9108950F931F93CF93DF93A8
:1044B000CDB7DEB762970FB6F894DEBF0FBECDBFA3
:1044C0008C01CB01F80111821082138212821582B5
:1044D0001482168250E0BE016F5F7F4F0E947F25DD
:1044E000BE016F5F7F4FC8010E943D2262960FB6EA
:1044F000F894DEBF0FBECDBFDF91CF911F910F911A
:104500000895EF92FF920F931F93CF93DF93FC01D7
:10451000248135816115710511F480E019C04115C0
:104520005105A9F07B01EC018A01020F131FB801AC
:104530000E94EA21882389F3288139818C819D8119
:10454000B701820F931F0E9478251D830C8381E0A1
:10455000DF91CF911F910F91FF90EF900895CF932E
:10456000DF93EC01FB0144815581608171810E94E0
:104570008122811103C0CE010E94BE21CE01DF91B4
:10458000CF910895FC01248135816217730748F4A7
:1045900080819181009729F0FC01E60FF71F80814F
:1045A000089580E008956F927F928F929F92AF92CC
:1045B000BF92CF92DF92EF92FF920F931F93CF9310
:1045C000DF93EC01009789F4CB01DF91CF911F912C
:1045D0000F91FF90EF90DF90CF90BF90AF909F90A2
:1045E0008F907F906F900C94BC23FC01E60FF71F17
:1045F0009C0122503109E217F30708F4ACC0D9013D
:104600000D911C91119706171707B0F00530110591
:1046100008F49FC0C80104978617970708F499C04B
:1046200002501109061B170B019311936D937C9394
:10463000CF010E9451248DC05B01A01AB10A4C0128
:10464000800E911EA0913B03B0913C0340E050E0EE
:10465000E12CF12C109709F44AC0A815B905D1F541
:104660006D907C901197630182E0C80ED11CCA1432
:10467000DB0480F1A3014A195B096A0182E0C80EDC
:10468000D11C1296BC9012971396AC91B5E0CB1644
:10469000D10440F0B282A38351834083D9016D934A
:1046A0007C930AC00E5F1F4FC301800F911FF90159
:1046B00091838083EB2DFA2FE114F10431F0D701BF
:1046C0001396FC93EE93129744C0F0933C03E0934F
:1046D0003B033FC08D919C9111974817590708F4EF
:1046E000AC017D0112960D90BC91A02DB3CF8091AD
:1046F000390390913A0388159905E1F44617570755
:10470000C8F48091140190911501009741F48DB780
:104710009EB74091180150911901841B950BE81721
:10472000F907C8F4F0933A03E0933903F901718370
:1047300060830FC0CB010E94BC237C01009759F01D
:10474000A801BE010E945D25CE010E945124C7012F
:1047500004C0CE0102C080E090E0DF91CF911F91B4
:104760000F91FF90EF90DF90CF90BF90AF909F9010
:104770008F907F906F900895CF93DF938230910553
:1047800010F482E090E0E0913B03F0913C0320E0E4
:1047900030E0C0E0D0E0309711F1408151814817FE
:1047A0005907C0F04817590761F482819381209717
:1047B00019F09B838A832BC090933C0380933B0327
:1047C00026C02115310519F04217530718F49A0134
:1047D000BE01DF01EF010280F381E02DDCCF211566
:1047E000310509F1281B390B2430310590F412965C
:1047F0008D919C9113976115710521F0FB019383B5
:10480000828304C090933C0380933B03FD01329666
:1048100044C0FD01E20FF31F8193919322503109AF
:104820002D933C933AC02091390330913A03232BC6
:1048300041F4209116013091170130933A032093EF
:10484000390320911401309115012115310541F4EE
:104850002DB73EB74091180150911901241B350B1B
:10486000E0913903F0913A03E217F307A0F42E1B0D
:104870003F0B2817390778F0AC014E5F5F4F2417C4
:10488000350748F04E0F5F1F50933A0340933903AA
:104890008193919302C0E0E0F0E0CF01DF91CF91EE
:1048A00008950F931F93CF93DF93009709F48CC063
:1048B000FC0132971382128200913B0310913C035A
:1048C0000115110581F420813181820F931F209100
:1048D000390330913A032817390779F5F0933A03F1
:1048E000E093390371C0D80140E050E0AE17BF0734
:1048F00050F412962D913C911397AD01211531057D
:1049000009F1D901F3CF9D01DA013383228360815C
:104910007181860F971F8217930769F4EC01288134
:104920003981260F371F2E5F3F4F318320838A81C5
:104930009B8193838283452B29F4F0933C03E0937E
:104940003B0342C01396FC93EE931297ED014991FD
:1049500059919E01240F351FE217F30771F48081EE
:104960009181840F951F029611969C938E9382815C
:10497000938113969C938E931297E0E0F0E0D80118
:1049800012968D919C911397009719F0F8018C0164
:10499000F6CF8D919C9198012E5F3F4F820F931F10
:1049A0002091390330913A032817390769F4309779
:1049B00029F410923C0310923B0302C0138212822E
:1049C00010933A0300933903DF91CF911F910F9118
:1049D0000895A1E21A2EAA1BBB1BFD010DC0AA1F40
:1049E000BB1FEE1FFF1FA217B307E407F50720F058
:1049F000A21BB30BE40BF50B661F771F881F991FD3
:104A00001A9469F760957095809590959B01AC011B
:104A1000BD01CF010895EE0FFF1F0590F491E02D29
:104A200009940E944325A59F900DB49F900DA49FCB
:104A3000800D911D1124089597FB10F8169400081D
:104A40000F93083098F00850232F342F452F562FFE
:104A5000672F782F892F902DF4CF05949795879500
:104A60007795679557954795379527950A95AAF7AE
:104A70000F9108952A0D3B1D4C1D5D1D6E1D7F1D60
:104A8000801F911F0895A29FB001B39FC001A39FF3
:104A9000700D811D1124911DB29F700D811D112477
:104AA000911D0895FB01DC010D900020E9F711979D
:104AB00005900D920020E1F70895FB01DC0102C092
:104AC00001900D9241505040D8F70895DC0101C08B
:104AD0006D9341505040E0F70895FB01DC010D90CB
:104AE0000020E9F7119701900D920020E1F7089559
:104AF000FB01DC0101900D920020E1F708954532A1
:104B0000510520F4423010F00C948A25FB011082EC
:104B1000CB010895BB274A3031F4992322F4BDE23A
:104B2000909581959F4F0C949625BB27FB015527A7
:104B3000AA27880F991FAA1FA41710F0A41B8395FA
:104B40005051B9F7A05DAA3308F0A95DA193009771
:104B500079F7B111B1931192CB010C94AF25DC011F
:104B6000FC01672F71917723E1F7329704C07C91A4
:104B70006D9370836291AE17BF07C8F30895F894E0
:024B8000FFCF65
:104B82000A0001000D0A0D0A000D0A00FFFFFFFFD7
:104B9200FFFFFFFF00003D0380000A0A53686965BA
:104BA2006C643A004641494C004F4B0057694669D4
:104BB2003A006C616464756D6173746931323333C8
:104BC200005353495000536574757020636F6D70C4
:104BD2006C6574652E0A0052756E6E696E6720539D
:104BE200656E644D657373616765202D2052756E25
:104BF200202300646977616E6B006D794669727378
:104C02007441707000375849774F534145574F638D
:104C120035335258526B76715655543659316F624C
:104C22007573436333004E45584D4F002F4C6962F4
:104C3200726172792F4E65786D6F2F534D532F53DA
:104C4200656E644D657373616765000A57616974C7
:104C5200696E672E2E2E0A00485454502F312E00B2
:104C6200782D74656D626F6F2D74696D653A000001
:104C720000000015032C2031036703460321034E75
:104C82006F20536F636B657420617661696C61623A
:104C92006C65000000000089135814EE13F7131B13
:104CA200149F13E514A8133F149614C214A0130002
:104CB200000000A61E2C204F1E7B1E5F1E9B1E00A6
:064CC2000000004B210080
:00000001FF
